:1000000000800020CD000000BD000000C9000000FD
:10001000BD000000C5000000C1000000BD000000E0
:10002000BD000000BD000000BD000000BD000000DC
:10003000BD000000BD000000BD000000BD000000CC
:10004000BD000000BD000000BD000000BD000000BC
:10005000BD000000BD000000BD000000BD000000AC
:10006000BD000000BD000000BD000000BD0000009C
:10007000BD000000BD000000BD000000BD0000008C
:10008000BD000000BD000000BD000000BD0000007C
:10009000BD000000BD000000BD000000BD0000006C
:1000A000BD000000BD000000BD000000BD0000005C
:1000B000BD000000BD000000BD000000FEE700BF65
:1000C000FEE700BFFEE700BFFEE700BF104A114891
:1000D00082420CD2D3431049034423F00303081D8A
:1000E000034451F8040B42F8040B9942F9D10B4A2E
:1000F0000B4B9A420BD2111D03335B1A23F00303FF
:100100000B44002142F8041B9A42FBD1FEE7FDE7B5
:10011000000000200000002024010000000000205A
:0401200000000020BB
:00000001FF
